:100000000C945D000C9485000C9485000C94850084
:100010000C9485000C9485000C9485000C9485004C
:100020000C9485000C9485000C9485000C9485003C
:100030000C9485000C9485000C9485000C9485002C
:100040000C94C5030C9485000C9435040C940F0497
:100050000C9485000C9485000C9485000C9485000C
:100060000C9485000C94850000000008000201003B
:100070000003040700000000000000000000000072
:10008000250028002B0000000000240027002A0083
:10009000040404040404040402020202020203032E
:1000A0000303030301020408102040800102040836
:1000B0001020010204081020670411241FBECFEF96
:1000C000D8E0DEBFCDBF15E0A0E0B1E0E8E3FCE0A2
:1000D00002C005900D92A437B107D9F726E0A4E736
:1000E000B5E001C01D92AF32B207E1F710E0CDE5F7
:1000F000D0E004C02197FE010E940F06CC35D10745
:10010000C9F70E94B0040C941A060C94000090E009
:10011000FC01EC55FF4F2491FC01E057FF4F849107
:10012000882399F090E0880F991FFC01EA57FF4F50
:10013000A591B491FC01E458FF4F859194918FB73C
:10014000F894EC91E22BEC938FBF0895CF92DF925D
:10015000EF92FF920F931F93CF93DF936C017A017D
:100160008B01C0E0D0E0CE15DF0589F0D8016D919C
:100170008D01D601ED91FC910190F081E02DC60139
:100180000995892B11F47E0102C02196ECCFC7019D
:10019000DF91CF911F910F91FF90EF90DF90CF9063
:1001A0000895FC01918D828D981761F0828DDF0199
:1001B000A80FB11D5D968C91928D9F5F9F73928F5A
:1001C00090E008958FEF9FEF0895FC01918D828D4F
:1001D000981731F0828DE80FF11D858D90E008951C
:1001E0008FEF9FEF0895FC01918D228D892F90E074
:1001F000805C9F4F821B91098F73992708958EE72A
:1002000095E00E94F30021E0892B09F420E0822F81
:100210000895FC01848DDF01A80FB11DA35ABF4FC3
:100220002C91848D90E001968F739927848FA689F5
:10023000B7892C93A089B1898C9180648C93938D1C
:10024000848D981306C00288F389E02D80818F7D0C
:1002500080830895EF92FF920F931F93CF93DF93C4
:10026000EC0181E0888F9B8D8C8D981305C0E88907
:10027000F989808185FD24C0F62E0B8D10E00F5F7B
:100280001F4F0F731127E02E8C8DE8120CC00FB694
:1002900007FCFACFE889F989808185FFF5CFCE0187
:1002A0000E940901F1CF8B8DFE01E80FF11DE35A89
:1002B000FF4FF0820B8FEA89FB898081806207C043
:1002C000EE89FF896083E889F98980818064808371
:1002D00081E090E0DF91CF911F910F91FF90EF901F
:1002E0000895CF93DF93EC01888D8823C9F0EA89C4
:1002F000FB89808185FD05C0A889B9898C9186FD1F
:100300000FC00FB607FCF5CF808185FFF2CFA8891B
:10031000B9898C9185FFEDCFCE010E940901E7CF0D
:10032000DF91CF91089580E090E0892B29F00E9421
:10033000FF0081110C940000089590E0FC01E85941
:10034000FF4F3491FC01EC55FF4F2491FC01E05725
:10035000FF4FE491EE2309F43BC0332339F13330EE
:1003600091F038F43130A9F0323001F584B58F7D49
:1003700012C0373091F03830A1F03430B9F48091A8
:1003800080008F7D03C0809180008F7780938000F4
:100390000DC084B58F7784BD09C08091B0008F7780
:1003A00003C08091B0008F7D8093B000F0E0EE0F2D
:1003B000FF1FE458FF4FA591B4918FB7F894EC91CB
:1003C000611103C020952E2301C02E2B2C938FBFCB
:1003D00008958EBD00000DB407FEFDCF8EB50895C3
:1003E0000F931F93CF93DF938C0160E0FC01818119
:1003F0000E949D01F8018081880F81640E94E901BB
:1004000082E10E94E90180E00E94E901C82FD0E06A
:1004100080E00E94E901D82B61E0F80181810E940F
:100420009D01CE01DF91CF911F910F910895EF9221
:10043000FF921F93CF93DF9300D0CDB7DEB77C013F
:10044000162F60E0FC01818149835A830E949D013F
:10045000F7019081892F880F80640E94E901812F24
:100460000E94E9014981842F0E94E9015A81852F68
:100470000E94E90161E0F70181810F900F90DF9107
:10048000CF911F91FF90EF900C949D012FEF260FBD
:10049000203198F441E050E002C0440F551F2A95E6
:1004A000E2F740955095FC0122813381422353238A
:1004B0005383428360E00C94170208952FEF260FB8
:1004C000203198F441E050E002C0440F551F2A95B6
:1004D000E2F740955095FC01208531854223532356
:1004E0005187408762E10C94170208951F93CF93C0
:1004F000DF93EC0189810E94870061E089810E947D
:100500009D011FB7F89480917405811124C0EAE918
:10051000F0E09491EEEAF0E08491E92FF0E0EE0F44
:10052000FF1FEA57FF4FA591B491EC91E82321F406
:1005300061E08AE00E949D018AE00E9487008CB5FC
:1005400080618CBD8CB580648CBD8DE00E9487007D
:100550008BE00E948700809174058F5F8093740503
:100560001FBF60E089810E949D018881880F80649F
:100570000E94E9018AE00E94E90188E00E94E90105
:1005800061E08981DF91CF911F910C949D01CF9201
:10059000DF92EF92FF928BE196E00E94F001A0E0E3
:1005A000B0E07C01DD24CC2485E296E00E94F001DD
:1005B000AC0160E070E0CB01BA016C297D298E2985
:1005C0009F29FF90EF90DF90CF9008950F931F9396
:1005D000CF93DF934FEF5FEF60E085E296E00E94FC
:1005E000170205E216E0CFEFDFEFF801D383C283F5
:1005F0004FEF5FEF6CE0C8010E941702F801D5834E
:10060000C4834FEF5FEF60E08BE196E00E9417023A
:100610000BE116E0F801D383C2834FEF5FEF6CE08C
:10062000C8010E941702F801D583C483DF91CF91DE
:100630001F910F910895CF93C1E0C80FC13218F4F4
:10064000C13158F401C0C1E06C2F85E296E00E94F0
:1006500046026C2F85E296E00AC0C1EFC80F6C2FEE
:100660008BE196E00E9446026C2F8BE196E0CF91E1
:100670000C945E02009769F0FC0101900020E9F7FC
:100680003197AF01481B590BBC018EE795E00C94E4
:10069000A60080E090E008958F929F92AF92BF9263
:1006A0000F931F93CF93DF93CDB7DEB7A1970FB60C
:1006B000F894DEBF0FBECDBF19A2423008F44AE065
:1006C0008E010F5D1F4F842E912CA12CB12CA50102
:1006D00094010E94ED05E62FB901CA0101501109EC
:1006E000EA3014F4E05D01C0E95CD801EC93232BFF
:1006F000242B252B61F7C8010E943A03A1960FB65F
:10070000F894DEBF0FBECDBFDF91CF911F910F9147
:10071000BF90AF909F908F900895CF92DF92EF920D
:10072000FF92CF93DF936C01990FEE08FF08F7FE5D
:100730001FC0E0917E05F0917F050190F081E02DD2
:100740006DE28EE795E00995EC0166277727CB01EE
:100750006C197D098E099F094AE00E944C038C0F99
:100760009D1FDF91CF91FF90EF90DF90CF90089584
:100770004AE0C701B601DF91CF91FF90EF90DF9083
:10078000CF900C944C030E9415061F920F920FB647
:100790000F9211242F933F938F939F93AF93BF9307
:1007A00080917A0590917B05A0917C05B0917D05A3
:1007B0003091790523E0230F2D3720F40196A11DF8
:1007C000B11D05C026E8230F0296A11DB11D20937F
:1007D000790580937A0590937B05A0937C05B0936F
:1007E0007D058091750590917605A0917705B09172
:1007F00078050196A11DB11D80937505909376052E
:10080000A0937705B0937805BF91AF919F918F9199
:100810003F912F910F900FBE0F901F9018951F9230
:100820000F920FB60F9211242F933F934F935F9324
:100830006F937F938F939F93AF93BF93EF93FF93A8
:100840008EE795E00E940901FF91EF91BF91AF9172
:100850009F918F917F916F915F914F913F912F91D8
:100860000F900FBE0F901F9018951F920F920FB60A
:100870000F9211242F938F939F93EF93FF93E09107
:100880008E05F0918F058081E0919405F09195059A
:1008900082FD12C09081809197058F5F8F732091A8
:1008A0009805821751F0E0919705F0E0E258FA4F71
:1008B000958F8093970501C08081FF91EF919F9163
:1008C0008F912F910F900FBE0F901F901895EEE70C
:1008D000F5E01382128288EE93E0A0E0B0E084831A
:1008E0009583A683B78384E095E09183808385EC2C
:1008F00090E09587848784EC90E09787868780ECEA
:1009000090E0918B808B81EC90E0938B828B82ECDA
:1009100090E0958B848B86EC90E0978B868B118E84
:10092000128E138E148EE5E2F6E010822AE0218307
:100930008FEF9FEF93838283118610861582148236
:1009400017821682EBE1F6E037E030832183938350
:10095000828311861086158214821782168208956A
:10096000789484B5826084BD84B5816084BD85B58A
:10097000826085BD85B5816085BD80916E00816096
:1009800080936E001092810080918100826080933C
:10099000810080918100816080938100809180003E
:1009A0008160809380008091B10084608093B10069
:1009B0008091B00081608093B00080917A00846063
:1009C00080937A0080917A00826080937A0080918F
:1009D0007A00816080937A0080917A0080688093A9
:1009E0007A001092C100E0918E05F0918F0582E0AF
:1009F0008083E0918A05F0918B051082E0918C054F
:100A0000F0918D0580E1808310929605E09192052A
:100A1000F091930586E08083E0919005F091910537
:100A2000808180618083E0919005F09191058081C3
:100A300088608083E0919005F091910580818068C5
:100A40008083E0919005F091910580818F7D808376
:100A500085E296E00E9476028BE196E00E947602A3
:100A60000E94E60240912706509128064E7F50933F
:100A700028064093270660E085E296E00E94170270
:100A800040912D0650912E064E7F50932E06409396
:100A90002D0662E185E296E00E94170280E195E072
:100AA0000E943A038BE595E00E943A038AE195E0C3
:100AB0000E943A03C1E00E94C7026B017C010E94C0
:100AC000E6028C2F0E941B0300E010E0D701C60154
:100AD000002E04C0B695A795979587950A94D2F7EE
:100AE00080FD03C081E090E002C080E090E00E94C1
:100AF0008D030F3121F08CE495E00E943A030F5FE3
:100B00001F4F0032110511F7C03221F08FE495E03C
:100B10000E943A03CF5FC13271F685E595E00E94ED
:100B20003A038EE595E00E943A038BE595E00E943A
:100B30003A0300E211E0C12CD12C7601C3940E944B
:100B4000C7022B013C010E94E6028C2D0E941B0370
:100B5000812C912C54018394C0E0D0E0FE01B09729
:100B6000E00FF11F90819923C9F021962FEF821A8F
:100B7000920AA20AB20AC032D10581F73FEFC31A26
:100B8000D30AE30AF30A005E1F4F41E2C416D10400
:100B9000E104F104A1F60E949301CBCFA3019201DD
:100BA0000C2E04C056954795379527950A94D2F791
:100BB00020FDDBCF84E695E00E943A034AE0C701BE
:100BC000B6010E944C038FE695E00E943A034AE08A
:100BD000C501B4010E944C03C8CFA1E21A2EAA1B82
:100BE000BB1BFD010DC0AA1FBB1FEE1FFF1FA217DD
:100BF000B307E407F50720F0A21BB30BE40BF50BDA
:100C0000661F771F881F991F1A9469F76095709562
:100C1000809590959B01AC01BD01CF010895EE0F29
:100C2000FF1F0590F491E02D099481E090E0F89485
:080C30000C941A06F894FFCFA2
:100C380001000000000000000000000000000000AB
:100C4800000000000000000000000000000000009C
:100C5800000100000000000000000000000000008B
:100C6800000000000000000000000000000000007C
:100C7800000001000000000000000000000000006B
:100C8800000000000000000000000000000000005C
:100C9800000000010000000000000000000000004B
:100CA800000000000000000000000000000000003C
:100CB800000000000100000000000000000000002B
:100CC800000000000000000000000000000000001C
:100CD800000000000001000000000000000000000B
:100CE80000000000000000000000000000000000FC
:100CF80000000000000001000000000000000000EB
:100D080000000000000000000000000000000000DB
:100D180000000000000000010000000000000000CA
:100D280000000000000000000000000000000000BB
:100D380000000000000000000100000000000000AA
:100D4800000000000000000000000000000000009B
:100D58000000000000000000000100010000000089
:100D6800000000000000000000000000000000007B
:100D7800000000000000000000000100000000006A
:100D8800000000000000000000000000000000005B
:100D98000000000000000000000100010000000049
:100DA800000000000000000000000000000000003B
:100DB8000000000000000000000000000101000029
:100DC800000000000000000000000000000000001B
:100DD8000000000000000000000000000101000009
:100DE80000000000000000000000000000000000FB
:100DF80000000000000000000000000000000100EA
:100E080000000000000000000000000000000000DA
:100E180000000000000000000000000000000001C9
:100E280000000000000000000000000000000000BA
:100E380000000000000000000000000000000000AA
:100E48000100000000000000000000000000010098
:100E5800000000000000000000000000000000008A
:100E68000001010000000000000000000000000177
:100E7800000000000000000000000000000000006A
:100E88000001010000000000000000000000000157
:100E9800000000000000000000000000000000004A
:100EA8000000000100000000000000000000000039
:100EB800000000000000000000000000000000002A
:100EC8000000000001000000000000000000000019
:100ED800000000000000000000000000000000000A
:100EE80000000000000100000000000000000000F9
:100EF80000000000000000000000000000000000EA
:100F080000000000000001000000000000000000D8
:100F180000000000000000000000000000000000C9
:100F280000000000000000010000000000000000B8
:100F380000000000000000000000000000000000A9
:100F48000000000000000000010000010000000097
:100F58000000000000000000000000000000000089
:100F68000000000000000000000100000000000078
:100F78000000000000000000000000000000000069
:100F88000000000000000000000001000000000058
:100F98000000000000000000000000000000000049
:100FA8000000000000000000000000010000000038
:100FB8000000000000000000000000000000000029
:100FC8000000000000000000000000000100000018
:100FD8000000000000000000000000000000000009
:100FE80000000000000000000000000000010000F8
:100FF80000000000000000000000000000000000E9
:1010080001000000000000000000000000000100D6
:1010180000000000000000000000000000000000C8
:1010280000000000000000000000000000000001B7
:10103800000000002A01A600F300D100E5007101BC
:1010480063616C69627261746500636F6E737420AA
:1010580075696E74385F74202F2A50524F474D457A
:101068004D2A2F2064657370697365645B544F5D06
:101078005B544F5D203D207B0D0A7B002C20007DBA
:101088002C0D0A7B007D207D3B0D0A0D0A00737430
:10109800617274000D0A524553554C543A20002091
:0410A800746F200041
:00000001FF
