:100000000C945D000C9485000C9485000C94850084
:100010000C9485000C9485000C9485000C9485004C
:100020000C9485000C9485000C9485000C9485003C
:100030000C9485000C9485000C9485000C9485002C
:100040000C94B8030C9485000C9428040C940204BE
:100050000C9485000C9485000C9485000C9485000C
:100060000C9485000C94850000000008000201003B
:100070000003040700000000000000000000000072
:10008000250028002B0000000000240027002A0083
:10009000040404040404040402020202020203032E
:1000A0000303030301020408102040800102040836
:1000B00010200102040810205A0411241FBECFEFA3
:1000C000D8E0DEBFCDBF12E0A0E0B1E0E2E8FDE0A5
:1000D00002C005900D92AC30B107D9F723E0ACE037
:1000E000B2E001C01D92A734B207E1F710E0CDE500
:1000F000D0E004C02197FE010E94B406CC35D107A0
:10010000C9F70E94A3040C94BF060C94000090E071
:10011000FC01EC55FF4F2491FC01E057FF4F849107
:10012000882399F090E0880F991FFC01EA57FF4F50
:10013000A591B491FC01E458FF4F859194918FB73C
:10014000F894EC91E22BEC938FBF0895CF92DF925D
:10015000EF92FF920F931F93CF93DF936C017A017D
:100160008B01C0E0D0E0CE15DF0589F0D8016D919C
:100170008D01D601ED91FC910190F081E02DC60139
:100180000995892B11F47E0102C02196ECCFC7019D
:10019000DF91CF911F910F91FF90EF90DF90CF9063
:1001A0000895FC01918D828D981761F0828DDF0199
:1001B000A80FB11D5D968C91928D9F5F9F73928F5A
:1001C00090E008958FEF9FEF0895FC01918D828D4F
:1001D000981731F0828DE80FF11D858D90E008951C
:1001E0008FEF9FEF0895FC01918D228D892F90E074
:1001F000805C9F4F821B91098F739927089586E930
:1002000092E00E94F30021E0892B09F420E0822F84
:100210000895FC01848DDF01A80FB11DA35ABF4FC3
:100220002C91848D90E001968F739927848FA689F5
:10023000B7892C93A089B1898C9180648C93938D1C
:10024000848D981306C00288F389E02D80818F7D0C
:1002500080830895EF92FF920F931F93CF93DF93C4
:10026000EC0181E0888F9B8D8C8D981305C0E88907
:10027000F989808185FD24C0F62E0B8D10E00F5F7B
:100280001F4F0F731127E02E8C8DE8120CC00FB694
:1002900007FCFACFE889F989808185FFF5CFCE0187
:1002A0000E940901F1CF8B8DFE01E80FF11DE35A89
:1002B000FF4FF0820B8FEA89FB898081806207C043
:1002C000EE89FF896083E889F98980818064808371
:1002D00081E090E0DF91CF911F910F91FF90EF901F
:1002E0000895CF93DF93EC01888D8823C9F0EA89C4
:1002F000FB89808185FD05C0A889B9898C9186FD1F
:100300000FC00FB607FCF5CF808185FFF2CFA8891B
:10031000B9898C9185FFEDCFCE010E940901E7CF0D
:10032000DF91CF91089580E090E0892B29F00E9421
:10033000FF0081110C940000089590E0FC01E85941
:10034000FF4F3491FC01EC55FF4F2491FC01E05725
:10035000FF4FE491EE2309F43BC0332339F13330EE
:1003600091F038F43130A9F0323001F584B58F7D49
:1003700012C0373091F03830A1F03430B9F48091A8
:1003800080008F7D03C0809180008F7780938000F4
:100390000DC084B58F7784BD09C08091B0008F7780
:1003A00003C08091B0008F7D8093B000F0E0EE0F2D
:1003B000FF1FE458FF4FA591B4918FB7F894EC91CB
:1003C000611103C020952E2301C02E2B2C938FBFCB
:1003D00008958EBD00000DB407FEFDCF8EB50895C3
:1003E0000F931F93CF93DF938C0160E0FC01818119
:1003F0000E949D01F8018081880F81640E94E901BB
:1004000082E10E94E90180E00E94E901C82FD0E06A
:1004100080E00E94E901D82B61E0F80181810E940F
:100420009D01CE01DF91CF911F910F910895EF9221
:10043000FF921F93CF93DF9300D0CDB7DEB77C013F
:10044000162F60E0FC01818149835A830E949D013F
:10045000F7019081892F880F80640E94E901812F24
:100460000E94E9014981842F0E94E9015A81852F68
:100470000E94E90161E0F70181810F900F90DF9107
:10048000CF911F91FF90EF900C949D012FEF260FBD
:10049000203198F441E050E002C0440F551F2A95E6
:1004A000E2F740955095FC0122813381422353238A
:1004B0005383428360E00C94170208952FEF260FB8
:1004C000203198F441E050E002C0440F551F2A95B6
:1004D000E2F740955095FC01208531854223532356
:1004E0005187408762E10C94170208951F93CF93C0
:1004F000DF93EC0189810E94870061E089810E947D
:100500009D011FB7F89480910C02811124C0EAE983
:10051000F0E09491EEEAF0E08491E92FF0E0EE0F44
:10052000FF1FEA57FF4FA591B491EC91E82321F406
:1005300061E08AE00E949D018AE00E9487008CB5FC
:1005400080618CBD8CB580648CBD8DE00E9487007D
:100550008BE00E94870080910C028F5F80930C02D9
:100560001FBF60E089810E949D018881880F80649F
:100570000E94E9018AE00E94E90188E00E94E90105
:1005800061E08981DF91CF911F910C949D01CF9201
:10059000DF92EF92FF9283E393E00E94F001A0E0EC
:1005A000B0E07C01DD24CC248DE393E00E94F001D7
:1005B000AC0160E070E0CB01BA016C297D298E2985
:1005C0009F29FF90EF90DF90CF9008950F931F9396
:1005D000CF93DF934FEF5FEF60E08DE393E00E94F6
:1005E00017020DE313E0CFEFDFEFF801D383C283EF
:1005F0004FEF5FEF6CE0C8010E941702F801D5834E
:10060000C4834FEF5FEF60E083E393E00E94170243
:1006100003E313E0F801D383C2834FEF5FEF6CE095
:10062000C8010E941702F801D583C483DF91CF91DE
:100630001F910F910895CF93C1E0C80FC13218F4F4
:10064000C13158F401C0C1E06C2F8DE393E00E94EA
:1006500046026C2F8DE393E00AC0C1EFC80F6C2FE8
:1006600083E393E00E9446026C2F83E393E0CF91F3
:100670000C945E02009769F0FC0101900020E9F7FC
:100680003197AF01481B590BBC0186E992E00C94ED
:10069000A60080E090E008950C943A038F929F9218
:1006A000AF92BF920F931F93CF93DF93CDB7DEB777
:1006B000A1970FB6F894DEBF0FBECDBF19A242308E
:1006C00008F44AE08E010F5D1F4F842E912CA12C5F
:1006D000B12CA50194010E949206E62FB901CA012E
:1006E00001501109EA3014F4E05D01C0E95CD80161
:1006F000EC93232B242B252B61F7C8010E943A038E
:10070000A1960FB6F894DEBF0FBECDBFDF91CF919B
:100710001F910F91BF90AF909F908F900895CF92AF
:10072000DF92EF92FF92CF93DF936B017C01E09118
:100730009602F09197020190F081E02D6DE286E93A
:1007400092E00995EC0166277727CB016C197D09AA
:100750008E099F094AE00E944E038C0F9D1FDF9176
:10076000CF91FF90EF90DF90CF9008950E94BA064E
:100770001F920F920FB60F9211242F933F938F93D6
:100780009F93AF93BF938091920290919302A09117
:100790009402B09195023091910223E0230F2D37FE
:1007A00020F40196A11DB11D05C026E8230F029675
:1007B000A11DB11D20939102809392029093930208
:1007C000A0939402B093950280918D0290918E0235
:1007D000A0918F02B09190020196A11DB11D80934E
:1007E0008D0290938E02A0938F02B0939002BF91DE
:1007F000AF919F918F913F912F910F900FBE0F90CE
:100800001F9018951F920F920FB60F9211242F93DD
:100810003F934F935F936F937F938F939F93AF9388
:10082000BF93EF93FF9386E992E00E940901FF9145
:10083000EF91BF91AF919F918F917F916F915F9158
:100840004F913F912F910F900FBE0F901F901895D1
:100850001F920F920FB60F9211242F938F939F9395
:10086000EF93FF93E091A602F091A7028081E091BF
:10087000AC02F091AD0282FD12C090818091AF0276
:100880008F5F8F732091B002821751F0E091AF0219
:10089000F0E0EA56FD4F958F8093AF0201C0808152
:1008A000FF91EF919F918F912F910F900FBE0F901D
:1008B0001F901895E6E9F2E01382128288EE93E029
:1008C000A0E0B0E084839583A683B78384E891E0B9
:1008D0009183808385EC90E09587848784EC90E019
:1008E0009787868780EC90E0918B808B81EC90E0FD
:1008F000938B828B82EC90E0958B848B86EC90E0DE
:10090000978B868B118E128E138E148EEDE3F3E08F
:1009100010822AE021838FEF9FEF938382831186D9
:1009200010861582148217821682E3E3F3E037E023
:1009300030832183938382831186108615821482EB
:10094000178216820895CF93DF93CDB7DEB72D9728
:100950000FB6F894DEBF0FBECDBF789484B5826029
:1009600084BD84B5816084BD85B5826085BD85B553
:10097000816085BD80916E00816080936E001092D1
:10098000810080918100826080938100809181004C
:1009900081608093810080918000816080938000DD
:1009A0008091B10084608093B1008091B00081603B
:1009B0008093B00080917A00846080937A00809167
:1009C0007A00826080937A0080917A0081608093BF
:1009D0007A0080917A00806880937A001092C1003A
:1009E000E091A602F091A70282E08083E091A2024A
:1009F000F091A3021082E091A402F091A50280E19F
:100A000080831092AE02E091AA02F091AB0286E0E0
:100A10008083E091A802F091A902808180618083A7
:100A2000E091A802F091A902808188608083E09122
:100A3000A802F091A902808180688083E091A802D9
:100A4000F091A90280818F7D80838DE393E00E94E5
:100A5000760283E393E00E9476020E94E6024091D0
:100A60003F03509140034E7F5093400340933F0318
:100A700060E08DE393E00E9417024091450350919E
:100A800046034E7F509346034093450362E18DE356
:100A900093E00E94170280E991E00E943A0384EDFE
:100AA00091E00E943A038AE991E00E944C03BB2442
:100AB000B3940E94C7026B017C010E94E6028B2D59
:100AC0000E941B0388EC91E00E944C0300E010E0C0
:100AD000D701C601002E04C0B695A79597958795B6
:100AE0000A94D2F780FD06C04AE061E070E080E041
:100AF00090E004C04AE060E070E0CB010E944E0349
:100B00000F5F1F4F0032110519F720E2B21621F0D6
:100B10008BEC91E00E944C03B39431E2B312C9CF45
:100B20008FEC91E00E944C0387ED91E00E943A0324
:100B300084ED91E00E943A03412C512C612C20E875
:100B4000722E40E051E05A8349839DE0A92E92E045
:100B5000B92E21E030E03D872C873C853B870E9401
:100B6000C7026B837C838D839E830E94E6028C8503
:100B70000E941B038C859D850197A301920104C0EF
:100B800056954795379527958A95D2F72F833887BD
:100B900049875A870C851D858DE0882E82E0982E26
:100BA000212C312C73016201022C04C0F694E794CD
:100BB000D794C7940A94D2F7E981FA818081918110
:100BC000A281B3818C219D21AE21BF21892B8A2B4B
:100BD0008B2BA1F55AC0F50180819181A281B3814F
:100BE0008C219D21AE21BF21892B8A2B8B2B31F5A6
:100BF0000C30110509F069C08DED91E00E944C03A5
:100C0000F50180819181A281B381C82AD92AEA2A7B
:100C1000FB2AC082D182E282F382F4018081918139
:100C2000A281B3812F81388549855A85822B932BE8
:100C3000A42BB52B80839183A283B383FFEF2F1A5C
:100C40003F0A24E0820E911C4C855D85040F151F20
:100C500050E22516310409F0A5CF2C853D852F5F84
:100C60003F4F3D872C8734E0A30EB11C49815A8148
:100C70004C5F5F4F5A8349832C853D852132310576
:100C800009F06BCF0E9493015CCF8B819C81AD8179
:100C9000BE81022C04C0B695A795979587950A94B6
:100CA000D2F780FF98CFC094D094E094F094F501EF
:100CB00080819181A281B381C822D922EA22FB22BC
:100CC000C082D182E282F382B9CF0B31110519F4CF
:100CD00083EE91E093CF053A110541F42C853D85D3
:100CE0002B303105C1F488EE91E088CF0D3D110520
:100CF00019F487EF91E082CF003231E0130719F445
:100D00008EEF91E07BCF083F41E0140709F078CFE8
:100D100084E092E073CF2B852F3009F071CF80EF04
:100D200091E06CCFA1E21A2EAA1BBB1BFD010DC0E6
:100D3000AA1FBB1FEE1FFF1FA217B307E407F5078B
:100D400020F0A21BB30BE40BF50B661F771F881F67
:100D5000991F1A9469F760957095809590959B01FD
:100D6000AC01BD01CF010895EE0FFF1F0590F49176
:100D7000E02D099481E090E0F8940C94BF06F8947B
:020D8000FFCFA3
:100D82000000008000000040000000200000001071
:100D92000000000800000004000000020000000142
:100DA2000000800000005000000020000000500001
:100DB20000000C0000000C00000002000000010016
:100DC20002800000016000000160000000100000CD
:100DD2000008000000040000000200000001000002
:100DE2009000000040000000200000001000000001
:100DF2000800000004000000028000000100000062
:100E0200000000002A01A600F300D100E5007101F4
:100E120063616C69627261746500636F6E737420E2
:100E220075696E7433325F74202F2A50524F474DCA
:100E3200454D2A2F2064657370697365645B544F56
:100E42005D203D207B0D0A003062002C0D0A00203F
:100E52007D3B0D0A0D0A007374617274000D0A4F16
:100E62006E65000D54776F000D0A54687265650057
:100E72000D0A466F7572000D0A46697665000D0A05
:0C0E8200536978000D0A536576656E0018
:00000001FF
