:100000000C945D000C9485000C9485000C94850084
:100010000C9485000C9485000C9485000C9485004C
:100020000C9485000C9485000C9485000C9485003C
:100030000C9485000C9485000C9485000C9485002C
:100040000C9410040C9485000C94DE030C94B803FB
:100050000C9485000C9485000C9485000C9485000C
:100060000C9485000C94850000000008000201003B
:100070000003040700000000000000000000000072
:10008000250028002B0000000000240027002A0083
:10009000040404040404040402020202020203032E
:1000A0000303030301020408102040800102040836
:1000B00010200102040810205A0411241FBECFEFA3
:1000C000D8E0DEBFCDBF11E0A0E0B1E0E0ECFDE0A4
:1000D00002C005900D92AA3FB107D9F723E0AAEF1D
:1000E000B1E001C01D92A533B207E1F710E0CDE504
:1000F000D0E004C02197FE010E94D306CC35D10781
:10010000C9F70E94A3040C94DE060C94000090E052
:10011000FC01EC55FF4F2491FC01E057FF4F849107
:10012000882399F090E0880F991FFC01EA57FF4F50
:10013000A591B491FC01E458FF4F859194918FB73C
:10014000F894EC91E22BEC938FBF0895CF92DF925D
:10015000EF92FF920F931F93CF93DF936C017A017D
:100160008B01C0E0D0E0CE15DF0589F0D8016D919C
:100170008D01D601ED91FC910190F081E02DC60139
:100180000995892B11F47E0102C02196ECCFC7019D
:10019000DF91CF911F910F91FF90EF90DF90CF9063
:1001A0000895FC01918D828D981761F0828DDF0199
:1001B000A80FB11D5D968C91928D9F5F9F73928F5A
:1001C00090E008958FEF9FEF0895FC01918D828D4F
:1001D000981731F0828DE80FF11D858D90E008951C
:1001E0008FEF9FEF0895FC01918D228D892F90E074
:1001F000805C9F4F821B91098F739927089584E833
:1002000092E00E94F30021E0892B09F420E0822F84
:100210000895FC01848DDF01A80FB11DA35ABF4FC3
:100220002C91848D90E001968F739927848FA689F5
:10023000B7892C93A089B1898C9180648C93938D1C
:10024000848D981306C00288F389E02D80818F7D0C
:1002500080830895EF92FF920F931F93CF93DF93C4
:10026000EC0181E0888F9B8D8C8D981305C0E88907
:10027000F989808185FD24C0F62E0B8D10E00F5F7B
:100280001F4F0F731127E02E8C8DE8120CC00FB694
:1002900007FCFACFE889F989808185FFF5CFCE0187
:1002A0000E940901F1CF8B8DFE01E80FF11DE35A89
:1002B000FF4FF0820B8FEA89FB898081806207C043
:1002C000EE89FF896083E889F98980818064808371
:1002D00081E090E0DF91CF911F910F91FF90EF901F
:1002E0000895CF93DF93EC01888D8823C9F0EA89C4
:1002F000FB89808185FD05C0A889B9898C9186FD1F
:100300000FC00FB607FCF5CF808185FFF2CFA8891B
:10031000B9898C9185FFEDCFCE010E940901E7CF0D
:10032000DF91CF91089580E090E0892B29F00E9421
:10033000FF0081110C940000089590E0FC01E85941
:10034000FF4F3491FC01EC55FF4F2491FC01E05725
:10035000FF4FE491EE2309F43BC0332339F13330EE
:1003600091F038F43130A9F0323001F584B58F7D49
:1003700012C0373091F03830A1F03430B9F48091A8
:1003800080008F7D03C0809180008F7780938000F4
:100390000DC084B58F7784BD09C08091B0008F7780
:1003A00003C08091B0008F7D8093B000F0E0EE0F2D
:1003B000FF1FE458FF4FA591B4918FB7F894EC91CB
:1003C000611103C020952E2301C02E2B2C938FBFCB
:1003D00008958EBD00000DB407FEFDCF8EB50895C3
:1003E0000F931F93CF93DF938C0160E0FC01818119
:1003F0000E949D01F8018081880F81640E94E901BB
:1004000082E10E94E90180E00E94E901C82FD0E06A
:1004100080E00E94E901D82B61E0F80181810E940F
:100420009D01CE01DF91CF911F910F910895EF9221
:10043000FF921F93CF93DF9300D0CDB7DEB77C013F
:10044000162F60E0FC01818149835A830E949D013F
:10045000F7019081892F880F80640E94E901812F24
:100460000E94E9014981842F0E94E9015A81852F68
:100470000E94E90161E0F70181810F900F90DF9107
:10048000CF911F91FF90EF900C949D012FEF260FBD
:10049000203198F441E050E002C0440F551F2A95E6
:1004A000E2F740955095FC0122813381422353238A
:1004B0005383428360E00C94170208952FEF260FB8
:1004C000203198F441E050E002C0440F551F2A95B6
:1004D000E2F740955095FC01208531854223532356
:1004E0005187408762E10C94170208951F93CF93C0
:1004F000DF93EC0189810E94870061E089810E947D
:100500009D011FB7F8948091FA01811124C0EAE996
:10051000F0E09491EEEAF0E08491E92FF0E0EE0F44
:10052000FF1FEA57FF4FA591B491EC91E82321F406
:1005300061E08AE00E949D018AE00E9487008CB5FC
:1005400080618CBD8CB580648CBD8DE00E9487007D
:100550008BE00E9487008091FA018F5F8093FA01FF
:100560001FBF60E089810E949D018881880F80649F
:100570000E94E9018AE00E94E90188E00E94E90105
:1005800061E08981DF91CF911F910C949D01CF9201
:10059000DF92EF92FF9281E293E00E94F001A0E0EF
:1005A000B0E07C01DD24CC248BE293E00E94F001DA
:1005B000AC0160E070E0CB01BA016C297D298E2985
:1005C0009F29FF90EF90DF90CF9008950F931F9396
:1005D000CF93DF934FEF5FEF60E08BE293E00E94F9
:1005E00017020BE213E0CFEFDFEFF801D383C283F2
:1005F0004FEF5FEF6CE0C8010E941702F801D5834E
:10060000C4834FEF5FEF60E081E293E00E94170246
:1006100001E213E0F801D383C2834FEF5FEF6CE098
:10062000C8010E941702F801D583C483DF91CF91DE
:100630001F910F910895CF93C1E0C80FC13218F4F4
:10064000C13158F401C0C1E06C2F8BE293E00E94ED
:1006500046026C2F8BE293E00AC0C1EFC80F6C2FEB
:1006600081E293E00E9446026C2F81E293E0CF91F9
:100670000C945E02009769F0FC0101900020E9F7FC
:100680003197AF01481B590BBC0184E892E00C94F0
:10069000A60080E090E008958F929F92AF92BF9263
:1006A0000F931F93CF93DF93CDB7DEB7A1970FB60C
:1006B000F894DEBF0FBECDBF19A2423008F44AE065
:1006C0008E010F5D1F4F842E912CA12CB12CA50102
:1006D00094010E94B106E62FB901CA010150110927
:1006E000EA3014F4E05D01C0E95CD801EC93232BFF
:1006F000242B252B61F7C8010E943A03A1960FB65F
:10070000F894DEBF0FBECDBFDF91CF911F910F9147
:10071000BF90AF909F908F900895CF92DF92EF920D
:10072000FF92CF93DF936B017C01E0918402F09103
:1007300085020190F081E02D6DE284E892E0099558
:10074000EC0166277727CB016C197D098E099F097B
:100750004AE00E944C038C0F9D1FDF91CF91FF90C8
:10076000EF90DF90CF9008950C943A030E94D90641
:100770001F920F920FB60F9211242F933F934F9316
:100780005F936F937F938F939F93AF93BF93EF93F9
:10079000FF9384E892E00E940901FF91EF91BF91DD
:1007A000AF919F918F917F916F915F914F913F9109
:1007B0002F910F900FBE0F901F9018951F920F92C0
:1007C0000FB60F9211242F938F939F93EF93FF9364
:1007D000E0919402F09195028081E0919A02F0916B
:1007E0009B0282FD12C0908180919D028F5F8F736A
:1007F00020919E02821751F0E0919D02F0E0EC57AB
:10080000FD4F958F80939D0201C08081FF91EF91F4
:100810009F918F912F910F900FBE0F901F90189561
:100820001F920F920FB60F9211242F933F938F9325
:100830009F93AF93BF938091000290910102A0918A
:100840000202B09103023091FF0123E0230F2D3704
:1008500020F40196A11DB11D05C026E8230F0296C4
:10086000A11DB11D2093FF0180930002909301020E
:10087000A0930202B09303028091FB019091FC01CE
:10088000A091FD01B091FE010196A11DB11D8093C3
:10089000FB019093FC01A093FD01B093FE01BF9179
:1008A000AF919F918F913F912F910F900FBE0F901D
:1008B0001F901895E4E8F2E01382128288EE93E02C
:1008C000A0E0B0E084839583A683B78384E891E0B9
:1008D0009183808385EC90E09587848784EC90E019
:1008E0009787868780EC90E0918B808B81EC90E0FD
:1008F000938B828B82EC90E0958B848B86EC90E0DE
:10090000978B868B118E128E138E148EEBE2F3E092
:1009100010822AE021838FEF9FEF938382831186D9
:1009200010861582148217821682E1E2F3E037E026
:1009300030832183938382831186108615821482EB
:10094000178216820895CF93DF93CDB7DEB72E9727
:100950000FB6F894DEBF0FBECDBF789484B5826029
:1009600084BD84B5816084BD85B5826085BD85B553
:10097000816085BD80916E00816080936E001092D1
:10098000810080918100826080938100809181004C
:1009900081608093810080918000816080938000DD
:1009A0008091B10084608093B1008091B00081603B
:1009B0008093B00080917A00846080937A00809167
:1009C0007A00826080937A0080917A0081608093BF
:1009D0007A0080917A00806880937A001092C1003A
:1009E000E0919402F091950282E08083E091900280
:1009F000F09191021082E0919202F091930280E1D5
:100A0000808310929C02E0919802F091990286E016
:100A10008083E0919602F0919702808180618083CB
:100A2000E0919602F0919702808188608083E09146
:100A30009602F0919702808180688083E09196020F
:100A4000F091970280818F7D80838BE293E00E94FA
:100A5000760281E293E00E9476020E94E6024091D3
:100A60002D0350912E034E7F50932E0340932D0360
:100A700060E08BE293E00E941702409133035091B3
:100A800034034E7F509334034093330362E18BE28F
:100A900093E00E94170280E991E00E943A0384EDFE
:100AA00091E00E943A038AE991E00E94B403BB24DA
:100AB000B3940E94C7026B017C010E94E6028B2D59
:100AC0000E941B0388EC91E00E94B40300E010E058
:100AD000D701C601002E04C0B695A79597958795B6
:100AE0000A94D2F780FD06C04AE061E070E080E041
:100AF00090E004C04AE060E070E0CB010E944C034B
:100B00000F5F1F4F0032110519F720E2B21621F0D6
:100B10008BEC91E00E94B403B39431E2B312C9CFDD
:100B20008FEC91E00E94B40387ED91E00E943A03BC
:100B300084ED91E00E943A0384ED91E00E94B403B9
:100B40002FB7F89460910002709101028091020227
:100B5000909103022FBF4AE00E944C0330E0232E05
:100B600031E0332E24E032E03E872D87812C912C1A
:100B7000540183940E94C7026D837E838F8398877C
:100B80000E94E602882D0E941B03C401019720E009
:100B900030E040E050E804C05695479537952795DA
:100BA0008A95D2F729833A834B835C8320953095CD
:100BB0004095509529873A874B875C8704E012E07F
:100BC000412C512C32014394C2010197C12CD12CEC
:100BD000E12C90E8F92E082E04C0F694E794D794FF
:100BE000C7940A94D2F7D1014D915D916D917C919A
:100BF0004C215D216E217F21452B462B472B09F08F
:100C00004CC02D813E814F81588504C05695479533
:100C1000379527958A95D2F7ED85FE8520FD63C02F
:100C200080819181A281B3818C219D21AE21BF2140
:100C3000892B8A2B8B2B89F58DED91E00E94B403D3
:100C40004AE0C501B4010E944C0389EE91E00E9484
:100C5000B4034AE0C301B2010E944C03ED85FE8556
:100C600080819181A281B381C82AD92AEA2AFB2AEC
:100C7000C082D182E282F382F80180819181A281D7
:100C8000B38129813A814B815C81822B932BA42BE8
:100C9000B52B80839183A283B383FFEF4F1A5F0A42
:100CA0006F0A7F0A0C5F1F4F21E242165104610454
:100CB000710409F089CF2D853E852C5F3F4F3E871B
:100CC0002D873FEF831A930AA30AB30A44E0240E48
:100CD000311C51E285169104A104B10409F04ACFF8
:100CE0000E94930129CF80819181A281B3818C21BF
:100CF0009D21AE21BF21892B8A2B8B2B71F28EEE89
:100D000091E00E94B4034AE0C501B4010E944C0383
:100D100089EE91E00E94B4034AE0C301B2010E944F
:100D20004C03C094D094E094F094ED85FE858081CE
:100D30009181A281B381C822D922EA22FB22C082FA
:100D4000D182E282F382F80180819181A281B38114
:100D500029853A854B855C8582239323A423B5237B
:100D600098CFA1E21A2EAA1BBB1BFD010DC0AA1F22
:100D7000BB1FEE1FFF1FA217B307E407F50720F004
:100D8000A21BB30BE40BF50B661F771F881F991F7F
:100D90001A9469F760957095809590959B01AC01C8
:100DA000BD01CF010895EE0FFF1F0590F491E02DD6
:100DB000099481E090E0F8940C94DE06F894FFCF5B
:100DC0000000008000000040000000200000001033
:100DD0000000000800000004000000020000000104
:100DE00000008000000050000000200000005000C3
:100DF00000000C0000000C000000020000000100D8
:100E0000028000000160000001600000001000008E
:100E100000080000000400000002000000010000C3
:100E200090000000400000002000000010000000C2
:100E30000800000004000000028000000100000023
:100E4000000000002A01A600F300D100E5007101B6
:100E500063616C69627261746500636F6E737420A4
:100E600075696E7433325F74202F2A50524F474D8C
:100E7000454D2A2F2064657370697365645B544F18
:100E80005D203D207B0D0A003062002C0D0A002001
:100E90007D3B0D0A0D0A007374617274000D0A50D7
:100EA000726573733A2020200020746F20000D0AB1
:0A0EB00052656C656173653A20001D
:00000001FF
