:100000000C945D000C9485000C9485000C94850084
:100010000C9485000C9485000C9485000C9485004C
:100020000C9485000C9485000C9485000C9485003C
:100030000C9485000C9485000C9485000C9485002C
:100040000C94C5030C9485000C9435040C940F0497
:100050000C9485000C9485000C9485000C9485000C
:100060000C9485000C94850000000008000201003B
:100070000003040700000000000000000000000072
:10008000250028002B0000000000240027002A0083
:10009000040404040404040402020202020203032E
:1000A0000303030301020408102040800102040836
:1000B0001020010204081020670411241FBECFEF96
:1000C000D8E0DEBFCDBF11E0A0E0B1E0E6E4FDE0A6
:1000D00002C005900D92AE3EB107D9F723E0AEEE17
:1000E000B1E001C01D92A932B207E1F710E0CDE501
:1000F000D0E004C02197FE010E949606CC35D107BE
:10010000C9F70E94B0040C94A1060C94000090E082
:10011000FC01EC55FF4F2491FC01E057FF4F849107
:10012000882399F090E0880F991FFC01EA57FF4F50
:10013000A591B491FC01E458FF4F859194918FB73C
:10014000F894EC91E22BEC938FBF0895CF92DF925D
:10015000EF92FF920F931F93CF93DF936C017A017D
:100160008B01C0E0D0E0CE15DF0589F0D8016D919C
:100170008D01D601ED91FC910190F081E02DC60139
:100180000995892B11F47E0102C02196ECCFC7019D
:10019000DF91CF911F910F91FF90EF90DF90CF9063
:1001A0000895FC01918D828D981761F0828DDF0199
:1001B000A80FB11D5D968C91928D9F5F9F73928F5A
:1001C00090E008958FEF9FEF0895FC01918D828D4F
:1001D000981731F0828DE80FF11D858D90E008951C
:1001E0008FEF9FEF0895FC01918D228D892F90E074
:1001F000805C9F4F821B91098F739927089588E730
:1002000092E00E94F30021E0892B09F420E0822F84
:100210000895FC01848DDF01A80FB11DA35ABF4FC3
:100220002C91848D90E001968F739927848FA689F5
:10023000B7892C93A089B1898C9180648C93938D1C
:10024000848D981306C00288F389E02D80818F7D0C
:1002500080830895EF92FF920F931F93CF93DF93C4
:10026000EC0181E0888F9B8D8C8D981305C0E88907
:10027000F989808185FD24C0F62E0B8D10E00F5F7B
:100280001F4F0F731127E02E8C8DE8120CC00FB694
:1002900007FCFACFE889F989808185FFF5CFCE0187
:1002A0000E940901F1CF8B8DFE01E80FF11DE35A89
:1002B000FF4FF0820B8FEA89FB898081806207C043
:1002C000EE89FF896083E889F98980818064808371
:1002D00081E090E0DF91CF911F910F91FF90EF901F
:1002E0000895CF93DF93EC01888D8823C9F0EA89C4
:1002F000FB89808185FD05C0A889B9898C9186FD1F
:100300000FC00FB607FCF5CF808185FFF2CFA8891B
:10031000B9898C9185FFEDCFCE010E940901E7CF0D
:10032000DF91CF91089580E090E0892B29F00E9421
:10033000FF0081110C940000089590E0FC01E85941
:10034000FF4F3491FC01EC55FF4F2491FC01E05725
:10035000FF4FE491EE2309F43BC0332339F13330EE
:1003600091F038F43130A9F0323001F584B58F7D49
:1003700012C0373091F03830A1F03430B9F48091A8
:1003800080008F7D03C0809180008F7780938000F4
:100390000DC084B58F7784BD09C08091B0008F7780
:1003A00003C08091B0008F7D8093B000F0E0EE0F2D
:1003B000FF1FE458FF4FA591B4918FB7F894EC91CB
:1003C000611103C020952E2301C02E2B2C938FBFCB
:1003D00008958EBD00000DB407FEFDCF8EB50895C3
:1003E0000F931F93CF93DF938C0160E0FC01818119
:1003F0000E949D01F8018081880F81640E94E901BB
:1004000082E10E94E90180E00E94E901C82FD0E06A
:1004100080E00E94E901D82B61E0F80181810E940F
:100420009D01CE01DF91CF911F910F910895EF9221
:10043000FF921F93CF93DF9300D0CDB7DEB77C013F
:10044000162F60E0FC01818149835A830E949D013F
:10045000F7019081892F880F80640E94E901812F24
:100460000E94E9014981842F0E94E9015A81852F68
:100470000E94E90161E0F70181810F900F90DF9107
:10048000CF911F91FF90EF900C949D012FEF260FBD
:10049000203198F441E050E002C0440F551F2A95E6
:1004A000E2F740955095FC0122813381422353238A
:1004B0005383428360E00C94170208952FEF260FB8
:1004C000203198F441E050E002C0440F551F2A95B6
:1004D000E2F740955095FC01208531854223532356
:1004E0005187408762E10C94170208951F93CF93C0
:1004F000DF93EC0189810E94870061E089810E947D
:100500009D011FB7F8948091EE01811124C0EAE9A2
:10051000F0E09491EEEAF0E08491E92FF0E0EE0F44
:10052000FF1FEA57FF4FA591B491EC91E82321F406
:1005300061E08AE00E949D018AE00E9487008CB5FC
:1005400080618CBD8CB580648CBD8DE00E9487007D
:100550008BE00E9487008091EE018F5F8093EE0117
:100560001FBF60E089810E949D018881880F80649F
:100570000E94E9018AE00E94E90188E00E94E90105
:1005800061E08981DF91CF911F910C949D01CF9201
:10059000DF92EF92FF9285E193E00E94F001A0E0EC
:1005A000B0E07C01DD24CC248FE193E00E94F001D7
:1005B000AC0160E070E0CB01BA016C297D298E2985
:1005C0009F29FF90EF90DF90CF9008950F931F9396
:1005D000CF93DF934FEF5FEF60E08FE193E00E94F6
:1005E00017020FE113E0CFEFDFEFF801D383C283EF
:1005F0004FEF5FEF6CE0C8010E941702F801D5834E
:10060000C4834FEF5FEF60E085E193E00E94170243
:1006100005E113E0F801D383C2834FEF5FEF6CE095
:10062000C8010E941702F801D583C483DF91CF91DE
:100630001F910F910895CF93C1E0C80FC13218F4F4
:10064000C13158F401C0C1E06C2F8FE193E00E94EA
:1006500046026C2F8FE193E00AC0C1EFC80F6C2FE8
:1006600085E193E00E9446026C2F85E193E0CF91F3
:100670000C945E02009769F0FC0101900020E9F7FC
:100680003197AF01481B590BBC0188E792E00C94ED
:10069000A60080E090E008958F929F92AF92BF9263
:1006A0000F931F93CF93DF93CDB7DEB7A1970FB60C
:1006B000F894DEBF0FBECDBF19A2423008F44AE065
:1006C0008E010F5D1F4F842E912CA12CB12CA50102
:1006D00094010E947406E62FB901CA010150110964
:1006E000EA3014F4E05D01C0E95CD801EC93232BFF
:1006F000242B252B61F7C8010E943A03A1960FB65F
:10070000F894DEBF0FBECDBFDF91CF911F910F9147
:10071000BF90AF909F908F900895CF92DF92EF920D
:10072000FF92CF93DF936C01990FEE08FF08F7FE5D
:100730001FC0E0917802F09179020190F081E02DE4
:100740006DE288E792E00995EC0166277727CB01F7
:100750006C197D098E099F094AE00E944C038C0F99
:100760009D1FDF91CF91FF90EF90DF90CF90089584
:100770004AE0C701B601DF91CF91FF90EF90DF9083
:10078000CF900C944C030E949C061F920F920FB6C0
:100790000F9211242F933F938F939F93AF93BF9307
:1007A0008091740290917502A0917602B0917702C7
:1007B0003091730223E0230F2D3720F40196A11D01
:1007C000B11D05C026E8230F0296A11DB11D20937F
:1007D00073028093740290937502A0937602B09393
:1007E000770280916F0290917002A0917102B09196
:1007F00072020196A11DB11D80936F029093700249
:10080000A0937102B0937202BF91AF919F918F91AB
:100810003F912F910F900FBE0F901F9018951F9230
:100820000F920FB60F9211242F933F934F935F9324
:100830006F937F938F939F93AF93BF93EF93FF93A8
:1008400088E792E00E940901FF91EF91BF91AF917B
:100850009F918F917F916F915F914F913F912F91D8
:100860000F900FBE0F901F9018951F920F920FB60A
:100870000F9211242F938F939F93EF93FF93E09107
:100880008802F09189028081E0918E02F0918F02BE
:1008900082FD12C09081809191028F5F8F732091B1
:1008A0009202821751F0E0919102F0E0E858FD4F7A
:1008B000958F8093910201C08081FF91EF919F916C
:1008C0008F912F910F900FBE0F901F901895E8E712
:1008D000F2E01382128288EE93E0A0E0B0E084831D
:1008E0009583A683B78384E891E09183808385EC28
:1008F00090E09587848784EC90E09787868780ECEA
:1009000090E0918B808B81EC90E0938B828B82ECDA
:1009100090E0958B848B86EC90E0978B868B118E84
:10092000128E138E148EEFE1F3E010822AE0218301
:100930008FEF9FEF93838283118610861582148236
:1009400017821682E5E1F3E037E030832183938359
:10095000828311861086158214821782168208956A
:10096000CF93DF93CDB7DEB72A970FB6F894DEBFEB
:100970000FBECDBF789484B5826084BD84B581609C
:1009800084BD85B5826085BD85B5816085BD80915A
:100990006E00816080936E001092810080918100D2
:1009A00082608093810080918100816080938100CA
:1009B000809180008160809380008091B10084608C
:1009C0008093B1008091B00081608093B0008091ED
:1009D0007A00846080937A0080917A0082608093AC
:1009E0007A0080917A00816080937A0080917A0009
:1009F000806880937A001092C100E0918802F091A3
:100A0000890282E08083E0918402F0918502108265
:100A1000E0918602F091870280E18083109290023B
:100A2000E0918C02F0918D0286E08083E0918A0251
:100A3000F0918B02808180618083E0918A02F09145
:100A40008B02808188608083E0918A02F0918B0222
:100A5000808180688083E0918A02F0918B0280819E
:100A60008F7D80838FE193E00E94760285E193E0A1
:100A70000E9476020E94E6024091210350912203D7
:100A80004E7F509322034093210360E08FE193E077
:100A90000E94170240912703509128034E7F5093E4
:100AA00028034093270362E18FE193E00E9417023D
:100AB00080E991E00E943A0384ED91E00E943A03BC
:100AC0008AE991E00E943A03BB24B3940E94C702D2
:100AD0006B017C010E94E6028B2D0E941B0388ECB7
:100AE00091E00E943A0300E010E0D701C601002E19
:100AF00004C0B695A795979587950A94D2F780FD7F
:100B000003C081E090E002C080E090E00E948D038D
:100B10000F5F1F4F0032110541F720E2B21621F09E
:100B20008BEC91E00E943A03B39431E2B312CECF42
:100B30008FEC91E00E943A0387ED91E00E943A0326
:100B400084ED91E00E943A0330E0232E31E0332E11
:100B50002FEE31E03A872987812C912C5401839420
:100B60000E94C70269837A838B839C830E94E6027A
:100B7000882D0E941B03C401019720E030E040E073
:100B800050E804C056954795379527958A95D2F732
:100B90002D833E834F8358870FEE11E0412C512C5B
:100BA00032014394C2010197C12CD12CE12C90E871
:100BB000F92E082E04C0F694E794D794C7940A94AB
:100BC000D2F7F10140815181628173814C215D2115
:100BD0006E217F21452B462B472B09F04CC02981E4
:100BE0003A814B815C8104C056954795379527958E
:100BF0008A95D2F720FD65C0E985FA8580819181CB
:100C0000A281B3818C219D21AE21BF21892B8A2B0A
:100C10008B2B89F58DED91E00E943A034AE0C501E6
:100C2000B4010E944C0389EE91E00E943A034AE02D
:100C3000C301B2010E944C03E985FA85808191814C
:100C4000A281B381C82AD92AEA2AFB2AC082D1828A
:100C5000E282F382F80180819181A281B3812D81AA
:100C60003E814F815885822B932BA42BB52B8083FB
:100C70009183A283B383FFEF4F1A5F0A6F0A7F0A43
:100C80000C5F1F4F21E2421651046104710409F008
:100C900089CF29853A852C5F3F4F3A8729873FEFD7
:100CA000831A930AA30AB30A44E0240E311C51E2CA
:100CB00085169104A104B10409F052CF0E9493015A
:100CC00043CFC094D094E094F094E985FA85808174
:100CD0009181A281B381C822D922EA22FB22C0825B
:100CE000D182E282F382C7CFA1E21A2EAA1BBB1BDC
:100CF000FD010DC0AA1FBB1FEE1FFF1FA217B307E8
:100D0000E407F50720F0A21BB30BE40BF50B661FFD
:100D1000771F881F991F1A9469F7609570958095C1
:100D200090959B01AC01BD01CF010895EE0FFF1F0F
:100D30000590F491E02D099481E090E0F8940C94F2
:060D4000A106F894FFCFAC
:100D460000000080000000400000002000000010AD
:100D5600000000080000000400000002000000017E
:100D6600000080000000500000002000000050003D
:100D760000000C0000000C00000002000000010052
:100D86000280000001600000016000000010000009
:100D9600000800000004000000020000000100003E
:100DA600900000004000000020000000100000003D
:100DB600080000000400000002800000010000009E
:100DC600000000002A01A600F300D100E500710131
:100DD60063616C69627261746500636F6E7374201F
:100DE60075696E7433325F74202F2A50524F474D07
:100DF600454D2A2F2064657370697365645B544F93
:100E06005D203D207B0D0A003062002C0D0A00207B
:100E16007D3B0D0A0D0A007374617274000D0A5051
:0E0E2600726573733A2020200020746F200044
:00000001FF
