:100000000C945D000C9485000C9485000C94850084
:100010000C9485000C9485000C9485000C9485004C
:100020000C9485000C9485000C9485000C9485003C
:100030000C9485000C9485000C9485000C9485002C
:100040000C94E7030C9485000C94B5030C948F0377
:100050000C9485000C9485000C9485000C9485000C
:100060000C9485000C94850000000008000201003B
:100070000003040700000000000000000000000072
:10008000250028002B0000000000240027002A0083
:10009000040404040404040402020202020203032E
:1000A0000303030301020408102040800102040836
:1000B0001020010204081020310411241FBECFEFCC
:1000C000D8E0DEBFCDBF11E0A0E0B1E0EAEBFBE09D
:1000D00002C005900D92A033B107D9F721E0A0E34B
:1000E000B1E001C01D92AB3EB207E1F710E0CDE5F3
:1000F000D0E004C02197FE010E94D005CC35D10785
:10010000C9F70E947A040C94DB050C94000090E07F
:10011000FC01EC55FF4F2491FC01E057FF4F849107
:10012000882399F090E0880F991FFC01EA57FF4F50
:10013000A591B491FC01E458FF4F859194918FB73C
:10014000F894EC91E22BEC938FBF0895CF92DF925D
:10015000EF92FF920F931F93CF93DF936C017A017D
:100160008B01C0E0D0E0CE15DF0589F0D8016D919C
:100170008D01D601ED91FC910190F081E02DC60139
:100180000995892B11F47E0102C02196ECCFC7019D
:10019000DF91CF911F910F91FF90EF90DF90CF9063
:1001A0000895FC01918D828D981761F0828DDF0199
:1001B000A80FB11D5D968C91928D9F5F9F73928F5A
:1001C00090E008958FEF9FEF0895FC01918D828D4F
:1001D000981731F0828DE80FF11D858D90E008951C
:1001E0008FEF9FEF0895FC01918D228D892F90E074
:1001F000805C9F4F821B91098F73992708958AE332
:1002000091E00E94F30021E0892B09F420E0822F85
:100210000895FC01848DDF01A80FB11DA35ABF4FC3
:100220002C91848D90E001968F739927848FA689F5
:10023000B7892C93A089B1898C9180648C93938D1C
:10024000848D981306C00288F389E02D80818F7D0C
:1002500080830895EF92FF920F931F93CF93DF93C4
:10026000EC0181E0888F9B8D8C8D981305C0E88907
:10027000F989808185FD24C0F62E0B8D10E00F5F7B
:100280001F4F0F731127E02E8C8DE8120CC00FB694
:1002900007FCFACFE889F989808185FFF5CFCE0187
:1002A0000E940901F1CF8B8DFE01E80FF11DE35A89
:1002B000FF4FF0820B8FEA89FB898081806207C043
:1002C000EE89FF896083E889F98980818064808371
:1002D00081E090E0DF91CF911F910F91FF90EF901F
:1002E0000895CF93DF93EC01888D8823C9F0EA89C4
:1002F000FB89808185FD05C0A889B9898C9186FD1F
:100300000FC00FB607FCF5CF808185FFF2CFA8891B
:10031000B9898C9185FFEDCFCE010E940901E7CF0D
:10032000DF91CF91089580E090E0892B29F00E9421
:10033000FF0081110C940000089590E0FC01E85941
:10034000FF4F3491FC01EC55FF4F2491FC01E05725
:10035000FF4FE491EE2309F43BC0332339F13330EE
:1003600091F038F43130A9F0323001F584B58F7D49
:1003700012C0373091F03830A1F03430B9F48091A8
:1003800080008F7D03C0809180008F7780938000F4
:100390000DC084B58F7784BD09C08091B0008F7780
:1003A00003C08091B0008F7D8093B000F0E0EE0F2D
:1003B000FF1FE458FF4FA591B4918FB7F894EC91CB
:1003C000611103C020952E2301C02E2B2C938FBFCB
:1003D00008953FB7F8948091320190913301A09134
:1003E0003401B091350126B5A89B05C02F3F19F007
:1003F0000196A11DB11D3FBFBA2FA92F982F8827A5
:10040000820F911DA11DB11DBC01CD0142E0660FFF
:10041000771F881F991F4A95D1F708958EBD000058
:100420000DB407FEFDCF8EB508950F931F93CF93A4
:10043000DF938C0160E0FC0181810E949D01F80145
:100440008081880F81640E940E0282E10E940E0268
:1004500080E00E940E02C82FD0E080E00E940E02D1
:10046000D82B61E0F80181810E949D01CE01DF91CE
:10047000CF911F910F910895EF92FF921F93CF9309
:10048000DF9300D0CDB7DEB77C01162F60E0FC0112
:10049000818149835A830E949D01F7019081892FB0
:1004A000880F80640E940E02812F0E940E024981F3
:1004B000842F0E940E025A81852F0E940E0261E055
:1004C000F70181810F900F90DF91CF911F91FF90E5
:1004D000EF900C949D012FEF260F203198F441E00E
:1004E00050E002C0440F551F2A95E2F74095509501
:1004F000FC0122813381422353235383428360E0F2
:100500000C943C0208952FEF260F203198F441E01F
:1005100050E002C0440F551F2A95E2F740955095D0
:10052000FC0120853185422353235187408762E1B6
:100530000C943C0208951F93CF93DF93EC018981C3
:100540000E94870061E089810E949D011FB7F89495
:1005500080913001811124C0EAE9F0E09491EEEA43
:10056000F0E08491E92FF0E0EE0FFF1FEA57FF4F14
:10057000A591B491EC91E82321F461E08AE00E9416
:100580009D018AE00E9487008CB580618CBD8CB58E
:1005900080648CBD8DE00E9487008BE00E94870004
:1005A000809130018F5F809330011FBF60E08981AF
:1005B0000E949D018881880F80640E940E028AE05B
:1005C0000E940E0288E00E940E0261E08981DF91A4
:1005D000CF911F910C949D010F931F93CF93DF93A5
:1005E0004FEF5FEF60E087ED91E00E943C0207ED86
:1005F00011E0CFEFDFEFF801D383C2834FEF5FEF5E
:100600006CE0C8010E943C02F801D583C4834FEF1F
:100610005FEF60E081EE91E00E943C0201EE11E0AC
:10062000F801D383C2834FEF5FEF6CE0C8010E94F3
:100630003C02F801D583C483DF91CF911F910F91C4
:100640000895CF93C82F813148F4682F87ED91E04A
:100650000E946B026C2F87ED91E009C0C0516C2F96
:1006600081EE91E00E946B026C2F81EE91E0CF91C0
:100670000C948302009769F0FC0101900020E9F7D7
:100680003197AF01481B590BBC018AE391E00C94F0
:10069000A60080E090E008958F929F92AF92BF9263
:1006A0000F931F93CF93DF93CDB7DEB7A1970FB60C
:1006B000F894DEBF0FBECDBF19A2423008F44AE065
:1006C0008E010F5D1F4F842E912CA12CB12CA50102
:1006D00094010E94AE05E62FB901CA01015011092B
:1006E000EA3014F4E05D01C0E95CD801EC93232BFF
:1006F000242B252B61F7C8010E943A03A1960FB65F
:10070000F894DEBF0FBECDBFDF91CF911F910F9147
:10071000BF90AF909F908F9008950E94D6051F9232
:100720000F920FB60F9211242F933F934F935F9325
:100730006F937F938F939F93AF93BF93EF93FF93A9
:100740008AE391E00E940901FF91EF91BF91AF917F
:100750009F918F917F916F915F914F913F912F91D9
:100760000F900FBE0F901F9018951F920F920FB60B
:100770000F9211242F938F939F93EF93FF93E09108
:100780004A01F0914B018081E0915001F0915101BB
:1007900082FD12C09081809153018F5F8F732091F1
:1007A0005401821751F0E0915301F0E0E65CFE4FF6
:1007B000958F8093530101C08081FF91EF919F91AC
:1007C0008F912F910F900FBE0F901F9018951F9231
:1007D0000F920FB60F9211242F933F938F939F93F5
:1007E000AF93BF938091360190913701A09138016A
:1007F000B09139013091310123E0230F2D3720F4DE
:100800000196A11DB11D05C026E8230F0296A11D6A
:10081000B11D209331018093360190933701A0934D
:100820003801B09339018091320190913301A09148
:100830003401B09135010196A11DB11D80933201A3
:1008400090933301A0933401B0933501BF91AF91E0
:100850009F918F913F912F910F900FBE0F901F90FE
:100860001895EAE3F1E01382128288EE93E0A0E0AB
:10087000B0E084839583A683B78384E091E091837D
:10088000808385EC90E09587848784EC90E097875F
:10089000868780EC90E0918B808B81EC90E0938B4D
:1008A000828B82EC90E0958B848B86EC90E0978B2A
:1008B000868B118E128E138E148EE1EEF1E087E09E
:1008C00080832AE021838FEF9FEF938382831186B9
:1008D00010861582148217821682E7EDF1E01082ED
:1008E0002183938382831186108615821482178256
:1008F00016820895789484B5826084BD84B5816041
:1009000084BD85B5826085BD85B5816085BD8091DA
:100910006E00816080936E00109281008091810052
:10092000826080938100809181008160809381004A
:10093000809180008160809380008091B10084600C
:100940008093B1008091B00081608093B00080916D
:100950007A00846080937A0080917A00826080932C
:100960007A0080917A00816080937A0080917A0089
:10097000806880937A001092C100E0914A01F09162
:100980004B0182E08083E0914601F09147011082A3
:10099000E0914801F091490180E180831092520179
:1009A000E0914E01F0914F0186E08083E0914C018F
:1009B000F0914D01808180618083E0914C01F09144
:1009C0004D01808188608083E0914C01F0914D0160
:1009D000808180688083E0914C01F0914D0180819D
:1009E0008F7D808387ED91E00E949B0281EE91E0F4
:1009F0000E949B0280E191E00E943A0386E191E02F
:100A00000E943A030E94EC0284E10E9421030E94AA
:100A1000E9014B015C0128EEC22E23E0D22EE12C2D
:100A2000F12C0E94E901DC01CB0188199909AA097E
:100A3000BB09883E9340A105B10558F021E0C21AD8
:100A4000D108E108F10848EE840E43E0941EA11C91
:100A5000B11CC114D104E104F10419F70E94EC02A5
:100A600089E191E00E943A0386E191E00E943A0315
:100A700001E010E086E191E00E943A032FB7F8947C
:100A80006091360170913701809138019091390160
:100A90002FBF4AE00E944C03812C912C5401839477
:100AA000D82DC12CD12C7601C394CC2DDC1581F12D
:100AB0008D2F0E942103C13108F044C087ED91E0E1
:100AC0000E941502960121503109A80102C0440F6D
:100AD000551F2A95E2F79A0182239323C1E0892BBF
:100AE00009F0C0E00E94EC02CC2391F08FE191E08C
:100AF0000E943A034AE0C501B4010E944C038AE215
:100B000091E00E943A034AE0C701B6010E944C03FB
:100B10005FEFC51AD50AE50AF50A81E2C816D104C5
:100B2000E104F10411F62FEF821A920AA20AB20A26
:100B300041E284169104A104B10409F0B1CF0E94EE
:100B4000930198CF81EE91E00E941502C151980166
:100B500002C0220F331FCA95E2F7BECFA1E21A2EC0
:100B6000AA1BBB1BFD010DC0AA1FBB1FEE1FFF1F51
:100B7000A217B307E407F50720F0A21BB30BE40BA1
:100B8000F50B661F771F881F991F1A9469F76095E8
:100B90007095809590959B01AC01BD01CF010895A2
:100BA000EE0FFF1F0590F491E02D099481E090E095
:0A0BB000F8940C94DB05F894FFCFD5
:100BBA00000000002A01A600F300D100E50071013F
:100BCA00636865636B000D0A007374617274000DCB
:100BDA000A524553554C543A200020746F200000A5
:00000001FF
