:100000000C945D000C9485000C9485000C94850084
:100010000C9485000C9485000C9485000C9485004C
:100020000C9485000C9485000C9485000C9485003C
:100030000C9485000C9485000C9485000C9485002C
:100040000C94C5030C9485000C9435040C940F0497
:100050000C9485000C9485000C9485000C9485000C
:100060000C9485000C94850000000008000201003B
:100070000003040700000000000000000000000072
:10008000250028002B0000000000240027002A0083
:10009000040404040404040402020202020203032E
:1000A0000303030301020408102040800102040836
:1000B0001020010204081020670411241FBECFEF96
:1000C000D8E0DEBFCDBF11E0A0E0B1E0ECE5FCE0A0
:1000D00002C005900D92AE3EB107D9F722E0AEEE18
:1000E000B1E001C01D92A93AB207E1F710E0CDE5F9
:1000F000D0E004C02197FE010E942106CC35D10733
:10010000C9F70E94B0040C942C060C94000090E0F7
:10011000FC01EC55FF4F2491FC01E057FF4F849107
:10012000882399F090E0880F991FFC01EA57FF4F50
:10013000A591B491FC01E458FF4F859194918FB73C
:10014000F894EC91E22BEC938FBF0895CF92DF925D
:10015000EF92FF920F931F93CF93DF936C017A017D
:100160008B01C0E0D0E0CE15DF0589F0D8016D919C
:100170008D01D601ED91FC910190F081E02DC60139
:100180000995892B11F47E0102C02196ECCFC7019D
:10019000DF91CF911F910F91FF90EF90DF90CF9063
:1001A0000895FC01918D828D981761F0828DDF0199
:1001B000A80FB11D5D968C91928D9F5F9F73928F5A
:1001C00090E008958FEF9FEF0895FC01918D828D4F
:1001D000981731F0828DE80FF11D858D90E008951C
:1001E0008FEF9FEF0895FC01918D228D892F90E074
:1001F000805C9F4F821B91098F739927089588EF28
:1002000091E00E94F30021E0892B09F420E0822F85
:100210000895FC01848DDF01A80FB11DA35ABF4FC3
:100220002C91848D90E001968F739927848FA689F5
:10023000B7892C93A089B1898C9180648C93938D1C
:10024000848D981306C00288F389E02D80818F7D0C
:1002500080830895EF92FF920F931F93CF93DF93C4
:10026000EC0181E0888F9B8D8C8D981305C0E88907
:10027000F989808185FD24C0F62E0B8D10E00F5F7B
:100280001F4F0F731127E02E8C8DE8120CC00FB694
:1002900007FCFACFE889F989808185FFF5CFCE0187
:1002A0000E940901F1CF8B8DFE01E80FF11DE35A89
:1002B000FF4FF0820B8FEA89FB898081806207C043
:1002C000EE89FF896083E889F98980818064808371
:1002D00081E090E0DF91CF911F910F91FF90EF901F
:1002E0000895CF93DF93EC01888D8823C9F0EA89C4
:1002F000FB89808185FD05C0A889B9898C9186FD1F
:100300000FC00FB607FCF5CF808185FFF2CFA8891B
:10031000B9898C9185FFEDCFCE010E940901E7CF0D
:10032000DF91CF91089580E090E0892B29F00E9421
:10033000FF0081110C940000089590E0FC01E85941
:10034000FF4F3491FC01EC55FF4F2491FC01E05725
:10035000FF4FE491EE2309F43BC0332339F13330EE
:1003600091F038F43130A9F0323001F584B58F7D49
:1003700012C0373091F03830A1F03430B9F48091A8
:1003800080008F7D03C0809180008F7780938000F4
:100390000DC084B58F7784BD09C08091B0008F7780
:1003A00003C08091B0008F7D8093B000F0E0EE0F2D
:1003B000FF1FE458FF4FA591B4918FB7F894EC91CB
:1003C000611103C020952E2301C02E2B2C938FBFCB
:1003D00008958EBD00000DB407FEFDCF8EB50895C3
:1003E0000F931F93CF93DF938C0160E0FC01818119
:1003F0000E949D01F8018081880F81640E94E901BB
:1004000082E10E94E90180E00E94E901C82FD0E06A
:1004100080E00E94E901D82B61E0F80181810E940F
:100420009D01CE01DF91CF911F910F910895EF9221
:10043000FF921F93CF93DF9300D0CDB7DEB77C013F
:10044000162F60E0FC01818149835A830E949D013F
:10045000F7019081892F880F80640E94E901812F24
:100460000E94E9014981842F0E94E9015A81852F68
:100470000E94E90161E0F70181810F900F90DF9107
:10048000CF911F91FF90EF900C949D012FEF260FBD
:10049000203198F441E050E002C0440F551F2A95E6
:1004A000E2F740955095FC0122813381422353238A
:1004B0005383428360E00C94170208952FEF260FB8
:1004C000203198F441E050E002C0440F551F2A95B6
:1004D000E2F740955095FC01208531854223532356
:1004E0005187408762E10C94170208951F93CF93C0
:1004F000DF93EC0189810E94870061E089810E947D
:100500009D011FB7F8948091EE01811124C0EAE9A2
:10051000F0E09491EEEAF0E08491E92FF0E0EE0F44
:10052000FF1FEA57FF4FA591B491EC91E82321F406
:1005300061E08AE00E949D018AE00E9487008CB5FC
:1005400080618CBD8CB580648CBD8DE00E9487007D
:100550008BE00E9487008091EE018F5F8093EE0117
:100560001FBF60E089810E949D018881880F80649F
:100570000E94E9018AE00E94E90188E00E94E90105
:1005800061E08981DF91CF911F910C949D01CF9201
:10059000DF92EF92FF9285E992E00E94F001A0E0E5
:1005A000B0E07C01DD24CC248FE992E00E94F001D0
:1005B000AC0160E070E0CB01BA016C297D298E2985
:1005C0009F29FF90EF90DF90CF9008950F931F9396
:1005D000CF93DF934FEF5FEF60E08FE992E00E94EF
:1005E00017020FE912E0CFEFDFEFF801D383C283E8
:1005F0004FEF5FEF6CE0C8010E941702F801D5834E
:10060000C4834FEF5FEF60E085E992E00E9417023C
:1006100005E912E0F801D383C2834FEF5FEF6CE08E
:10062000C8010E941702F801D583C483DF91CF91DE
:100630001F910F910895CF93C1E0C80FC13218F4F4
:10064000C13158F401C0C1E06C2F8FE992E00E94E3
:1006500046026C2F8FE992E00AC0C1EFC80F6C2FE1
:1006600085E992E00E9446026C2F85E992E0CF91E5
:100670000C945E02009769F0FC0101900020E9F7FC
:100680003197AF01481B590BBC0188EF91E00C94E6
:10069000A60080E090E008958F929F92AF92BF9263
:1006A0000F931F93CF93DF93CDB7DEB7A1970FB60C
:1006B000F894DEBF0FBECDBF19A2423008F44AE065
:1006C0008E010F5D1F4F842E912CA12CB12CA50102
:1006D00094010E94FF05E62FB901CA0101501109DA
:1006E000EA3014F4E05D01C0E95CD801EC93232BFF
:1006F000242B252B61F7C8010E943A03A1960FB65F
:10070000F894DEBF0FBECDBFDF91CF911F910F9147
:10071000BF90AF909F908F900895CF92DF92EF920D
:10072000FF92CF93DF936C01990FEE08FF08F7FE5D
:100730001FC0E091F801F091F9010190F081E02DE6
:100740006DE288EF91E00995EC0166277727CB01F0
:100750006C197D098E099F094AE00E944C038C0F99
:100760009D1FDF91CF91FF90EF90DF90CF90089584
:100770004AE0C701B601DF91CF91FF90EF90DF9083
:10078000CF900C944C030E9427061F920F920FB635
:100790000F9211242F933F938F939F93AF93BF9307
:1007A0008091F4019091F501A091F601B091F701CB
:1007B0003091F30123E0230F2D3720F40196A11D82
:1007C000B11D05C026E8230F0296A11DB11D20937F
:1007D000F3018093F4019093F501A093F601B09397
:1007E000F7018091EF019091F001A091F101B0919A
:1007F000F2010196A11DB11D8093EF019093F001CC
:10080000A093F101B093F201BF91AF919F918F91AD
:100810003F912F910F900FBE0F901F9018951F9230
:100820000F920FB60F9211242F933F934F935F9324
:100830006F937F938F939F93AF93BF93EF93FF93A8
:1008400088EF91E00E940901FF91EF91BF91AF9174
:100850009F918F917F916F915F914F913F912F91D8
:100860000F900FBE0F901F9018951F920F920FB60A
:100870000F9211242F938F939F93EF93FF93E09107
:100880000802F09109028081E0910E02F0910F02BE
:1008900082FD12C09081809111028F5F8F73209131
:1008A0001202821751F0E0911102F0E0E850FE4F81
:1008B000958F8093110201C08081FF91EF919F91EC
:1008C0008F912F910F900FBE0F901F901895E8EF0A
:1008D000F1E01382128288EE93E0A0E0B0E084831E
:1008E0009583A683B78384E891E09183808385EC28
:1008F00090E09587848784EC90E09787868780ECEA
:1009000090E0918B808B81EC90E0938B828B82ECDA
:1009100090E0958B848B86EC90E0978B868B118E84
:10092000128E138E148EEFE9F2E010822AE02183FA
:100930008FEF9FEF93838283118610861582148236
:1009400017821682E5E9F2E037E030832183938352
:10095000828311861086158214821782168208956A
:10096000789484B5826084BD84B5816084BD85B58A
:10097000826085BD85B5816085BD80916E00816096
:1009800080936E001092810080918100826080933C
:10099000810080918100816080938100809180003E
:1009A0008160809380008091B10084608093B10069
:1009B0008091B00081608093B00080917A00846063
:1009C00080937A0080917A00826080937A0080918F
:1009D0007A00816080937A0080917A0080688093A9
:1009E0007A001092C100E0910802F091090282E0C1
:1009F0008083E0910402F09105021082E0910602EA
:100A0000F091070280E1808310921002E0910C02C5
:100A1000F0910D0286E08083E0910A02F0910B02D2
:100A2000808180618083E0910A02F0910B028081D5
:100A300088608083E0910A02F0910B0280818068D7
:100A40008083E0910A02F0910B0280818F7D808388
:100A50008FE992E00E94760285E992E00E94760298
:100A60000E94E6024091A1025091A2024E7F509353
:100A7000A2024093A10260E08FE992E00E94170277
:100A80004091A7025091A8024E7F5093A802409334
:100A9000A70262E18FE992E00E94170280E991E0EB
:100AA0000E943A0384ED91E00E943A038AE991E0C2
:100AB0000E943A03C1E00E94C7024B015C010E9400
:100AC000E6028C2F0E941B0388EC91E00E943A03FF
:100AD000E12CF12CD501C4010E2C04C0B695A795CC
:100AE000979587950A94D2F780FD03C081E090E046
:100AF00002C080E090E00E948D038FEFE81AF80AB0
:100B000080E2E816F10431F7C03221F08BEC91E07D
:100B10000E943A03CF5FC13271F68FEC91E00E94E0
:100B20003A0387ED91E00E943A0384ED91E00E9440
:100B30003A03C0E0D1E0812C912C540183940E94AF
:100B4000C7022B013C010E94E602882D0E941B0374
:100B5000C12CD12C7601C39496012150310940E07B
:100B600050E060E070E8022E04C0769567955795D6
:100B700047950A94D2F788819981AA81BB81842301
:100B80009523A623B723892B8A2B8B2BD1F08FEFAC
:100B9000C81AD80AE80AF80A81E2C816D104E104A2
:100BA000F104D1F68FEF881A980AA80AB80A249699
:100BB00081E288169104A104B10409F60E94930110
:100BC000B8CFD301C20104C0B695A7959795879574
:100BD0002A95D2F780FDDBCF8DED91E00E943A039C
:100BE0004AE0C501B4010E944C0388EE91E00E94E6
:100BF0003A034AE0C701B6010E944C03C8CFA1E204
:100C00001A2EAA1BBB1BFD010DC0AA1FBB1FEE1F86
:100C1000FF1FA217B307E407F50720F0A21BB30BD1
:100C2000E40BF50B661F771F881F991F1A9469F74D
:100C300060957095809590959B01AC01BD01CF01A9
:100C40000895EE0FFF1F0590F491E02D099481E0C7
:0C0C500090E0F8940C942C06F894FFCF70
:100C5C000000008000000040000000200000001098
:100C6C000000000800000004000000020000000169
:100C7C000000800000005000000020000000500028
:100C8C0000000C0000000C0000000200000001003D
:100C9C0002800000016000000160000000100000F4
:100CAC000008000000040000000200000001000029
:100CBC009000000040000000200000001000000028
:100CCC000800000004000000028000000100000089
:100CDC00000000002A01A600F300D100E50071011C
:100CEC0063616C69627261746500636F6E7374200A
:100CFC0075696E7433325F74202F2A50524F474DF2
:100D0C00454D2A2F2064657370697365645B544F7D
:100D1C005D203D207B0D0A003062002C0D0A002066
:100D2C007D3B0D0A0D0A007374617274000D0A523A
:0E0D3C004553554C543A200020746F2000009F
:00000001FF
