:100000000C9462000C948A000C948A000C948A0070
:100010000C948A000C948A000C948A000C948A0038
:100020000C948A000C948A000C948A000C948A0028
:100030000C948A000C948A000C948A000C948A0018
:100040000C94C4040C948A000C9492040C946C04D8
:100050000C948A000C948A000C948A000C948A00F8
:100060000C948A000C948A000000000023002600F3
:10007000290000000008000201000003040700003E
:1000800000000000000000000000250028002B00F8
:1000900000000000240027002A00040404040404D3
:1000A0000404020202020202030303030303010227
:1000B00004081020408001020408102001020408F6
:1000C00010200E0511241FBECFEFD8E0DEBFCDBF3C
:1000D00011E0A0E0B1E0E2E5FEE002C005900D9283
:1000E000AA36B107D9F722E0AAE6B1E001C01D9215
:1000F000AC35B207E1F710E0C2E6D0E004C02197CA
:10010000FE010E94FA06C136D107C9F70E945705C1
:100110000C9427070C940000EBEAF1E0A089B18968
:1001200082E08C93A485B5851C92A685B78580E175
:100130008C93108EA489B58986E08C93A289B389AB
:100140008C9180618C93A289B3898C9188608C9307
:10015000A289B3898C9180688C930288F389E02D01
:1001600080818F7D8083089590E0FC01E255FF4FF0
:100170002491FC01E656FF4F8491882399F090E08A
:10018000880F991FFC01E057FF4FA591B491FC0126
:10019000EA57FF4F859194918FB7F894EC91E22B39
:1001A000EC938FBF0895CF92DF92EF92FF920F935F
:1001B0001F93CF93DF936C017A018B01C0E0D0E0F5
:1001C000CE15DF0589F0D8016D918D01D601ED9135
:1001D000FC910190F081E02DC6010995892B11F465
:1001E0007E0102C02196ECCFC701DF91CF911F9114
:1001F0000F91FF90EF90DF90CF900895FC01918DCB
:10020000828D981761F0828DDF01A80FB11D5D9678
:100210008C91928D9F5F9F73928F90E008958FEFE6
:100220009FEF0895FC01918D828D981731F0828D9A
:10023000E80FF11D858D90E008958FEF9FEF0895F1
:10024000FC01918D228D892F90E0805C9F4F821B55
:1002500091098F73992708958BEA91E00E942001FC
:1002600021E0892B09F420E0822F0895FC01848D80
:10027000DF01A80FB11DA35ABF4F2C91848D90E0D0
:1002800001968F739927848FA689B7892C93A089AB
:10029000B1898C9180648C93938D848D981306C062
:1002A0000288F389E02D80818F7D80830895EF920D
:1002B000FF920F931F93CF93DF93EC0181E0888F20
:1002C0009B8D8C8D981305C0E889F989808185FD07
:1002D00024C0F62E0B8D10E00F5F1F4F0F731127F8
:1002E000E02E8C8DE8120CC00FB607FCFACFE8891F
:1002F000F989808185FFF5CFCE010E943601F1CFCB
:100300008B8DFE01E80FF11DE35AFF4FF0820B8F3A
:10031000EA89FB898081806207C0EE89FF8960835A
:10032000E889F98980818064808381E090E0DF91B1
:10033000CF911F910F91FF90EF900895CF93DF938E
:10034000EC01888D8823C9F0EA89FB89808185FDCD
:1003500005C0A889B9898C9186FD0FC00FB607FC2E
:10036000F5CF808185FFF2CFA889B9898C9185FF6F
:10037000EDCFCE010E943601E7CFDF91CF910895F6
:1003800080E090E0892B29F00E942C0181110C94CF
:1003900000000895833081F028F4813099F0823094
:1003A000A1F008958730A9F08830B9F08430D1F4F5
:1003B000809180008F7D03C0809180008F77809333
:1003C0008000089584B58F7702C084B58F7D84BD89
:1003D00008958091B0008F7703C08091B0008F7D29
:1003E0008093B00008951F93CF93DF93282F30E0C0
:1003F000F901EE58FF4F8491F901E255FF4FD49176
:10040000F901E656FF4FC491CC23C9F0162F811194
:100410000E94CA01EC2FF0E0EE0FFF1FEA57FF4FDA
:10042000A591B4918FB7F894111105C09C91ED2F4F
:10043000E095E92302C0EC91ED2BEC938FBFDF91A7
:10044000CF911F9108953FB7F89480916C019091DE
:100450006D01A0916E01B0916F0126B5A89B05C0FA
:100460002F3F19F00196A11DB11D3FBFBA2FA92F33
:10047000982F8827820F911DA11DB11DBC01CD01B0
:1004800042E0660F771F881F991F4A95D1F708959C
:100490008F929F92AF92BF92CF92DF92EF92FF9294
:1004A0006B017C010E9423024B015C01C114D10449
:1004B000E104F104F1F00E942302DC01CB01881970
:1004C0009909AA09BB09883E9340A105B10570F3BB
:1004D00021E0C21AD108E108F10888EE880E83E015
:1004E000981EA11CB11CC114D104E104F10419F738
:1004F000DDCFFF90EF90DF90CF90BF90AF909F90B7
:100500008F9008952FB7F8948091700190917101A8
:10051000A0917201B09173012FBF4091750150916C
:1005200076016091770170917801841B950BA60B81
:10053000B70B8197A105B10538F463E070E080E066
:1005400090E00E944802DECF2FB7F89480917001AE
:1005500090917101A0917201B09173012FBF8093AE
:10056000750190937601A0937701B0937801089577
:100570008EBD00000DB407FEFDCF8EB50895EF923D
:10058000FF921F93CF93DF9300D0CDB7DEB77C01EE
:10059000162F60E0FC01818149835A830E94F30198
:1005A000F7019081892F880F80640E94B802812F03
:1005B0000E94B8024981842F0E94B8025A81852F77
:1005C0000E94B80261E0F70181810F900F90DF91E6
:1005D000CF911F91FF90EF900C94F3019FEF980F34
:1005E0009031C0F441E050E002C0440F551F9A958D
:1005F000E2F74095509580914A0290914B02482332
:10060000592350934B0240934A0260E088E492E001
:100610000C94BF0208959FEF980F9031C0F441E011
:1006200050E002C0440F551F9A95E2F7409550954F
:1006300080915002909151024823592350935102C6
:100640004093500262E188E492E00C94BF02089566
:100650001F93CF93DF93EC0189810E94B40061E086
:1006600089810E94F3011FB7F89480916A0181117A
:1006700024C0E4EAF0E09491E8EBF0E08491E92F03
:10068000F0E0EE0FFF1FE057FF4FA591B491EC9102
:10069000E82321F461E08AE00E94F3018AE00E94ED
:1006A000B4008CB580618CBD8CB580648CBD8DE050
:1006B0000E94B4008BE00E94B40080916A018F5FB9
:1006C00080936A011FBF60E089810E94F3018881E5
:1006D000880F80640E94B8028AE00E94B80288E015
:1006E0000E94B80261E08981DF91CF911F910C9443
:1006F000F3010F931F93CF93DF9340E050E060E04E
:1007000088E492E00E94BF02C8E4D2E01B821A8211
:100710004FEF5FEF6CE0CE010E94BF020FEF1FEFC3
:100720001D830C8340E050E060E082E592E00E948F
:10073000BF02C2E5D2E01B821A824FEF5FEF6CE08E
:10074000CE010E94BF021D830C83DF91CF911F91C8
:100750000F9108950E9400076115710579F0FB0162
:1007600001900020E9F73197AF01461B570BDC01E0
:10077000ED91FC910280F381E02D099480E090E0FE
:1007800008954F925F926F927F92EF92FF920F9334
:100790001F93CF93DF93CDB7DEB7A1970FB6F89431
:1007A000DEBF0FBECDBF7C01FA01CB0119A2223002
:1007B00008F42AE08E010F5D1F4F422E512C612C50
:1007C000712CBF01A30192010E940507F901CA0122
:1007D000015011096A3014F4605D01C0695CD801F0
:1007E0006C93232B242B252B61F7B801C7010E94A2
:1007F000AC03A1960FB6F894DEBF0FBECDBFDF915C
:10080000CF911F910F91FF90EF907F906F905F902D
:100810004F9008950C94AC03CF93C82F8091790129
:10082000882309F456C08091A5019091A601DC01AE
:10083000ED91FC910480F581E02D0995892B99F3C8
:1008400009C02637310509F445C02835310511F4B2
:10085000109279018091A5019091A601DC01ED91A2
:10086000FC910480F581E02D0995181619068CF588
:100870008091A5019091A601DC01ED91FC9106808B
:10088000F781E02D09959C01332723363105C9F600
:1008900060E171E08091A5019091A6010E940A0497
:1008A0004C2F50E060E070E02AE08091A50190912B
:1008B000A6010E94C10367E171E08091A5019091BA
:1008C000A6010E940A0462E370E080E090E00E94CA
:1008D000480283E6CF9108951F920F920FB60F92B0
:1008E00011242F933F934F935F936F937F938F9335
:1008F0009F93AF93BF93EF93FF938BEA91E00E9496
:100900003601FF91EF91BF91AF919F918F917F91B0
:100910006F915F914F913F912F910F900FBE0F906C
:100920001F9018951F920F920FB60F9211242F93BC
:100930008F939F93EF93FF93E091BB01F091BC01E4
:100940008081E091C101F091C20182FD12C09081CD
:100950008091C4018F5F8F732091C501821751F080
:10096000E091C401F0E0E555FE4F958F8093C401FE
:1009700001C08081FF91EF919F918F912F910F90F6
:100980000FBE0F901F9018951F920F920FB60F92E7
:1009900011242F933F938F939F93AF93BF93809195
:1009A000700190917101A0917201B0917301309129
:1009B0006B0123E0230F2D3720F40196A11DB11DFB
:1009C00005C026E8230F0296A11DB11D20936B01DF
:1009D0008093700190937101A0937201B0937301A1
:1009E00080916C0190916D01A0916E01B0916F01A9
:1009F0000196A11DB11D80936C0190936D01A09390
:100A00006E01B0936F01BF91AF919F918F913F9114
:100A10002F910F900FBE0F901F901895EBEAF1E009
:100A20001382128288EE93E0A0E0B0E08483958385
:100A3000A683B78384E091E09183808385EC90E086
:100A40009587848784EC90E09787868780EC90E098
:100A5000918B808B81EC90E0938B828B82EC90E089
:100A6000958B848B86EC90E0978B868B118E128E03
:100A7000138E148EE2E5F2E087E080832AE0218382
:100A80008FEF9FEF938382831186108615821482E5
:100A900017821682E8E4F2E0108221839383828336
:100AA0001186108615821482178216820895789412
:100AB00084B5826084BD84B5816084BD85B5826063
:100AC00085BD85B5816085BD80916E008160809314
:100AD0006E0010928100809181008260809381007D
:100AE000809181008160809381008091800081608D
:100AF000809380008091B10084608093B1008091E8
:100B0000B00081608093B00080917A00846080930F
:100B10007A0080917A00826080937A0080917A00D6
:100B2000816080937A0080917A00806880937A0057
:100B30001092C1001092A7011092A8011092A90171
:100B40001092AA011092750110927601109277010D
:100B50001092780160ED77E080E090E00E9448021A
:100B60008BEA91E09093A6018093A5010E948C00EE
:100B70000E94820260E271E08091A5019091A6013D
:100B80000E940A046AE070E080E090E00E9448025F
:100B900081E0809379010E948C0088E492E00E94B9
:100BA000280382E592E00E94280362E371E08BEA69
:100BB00091E00E94AC036DE171E08BEA91E00E944C
:100BC000AC030E9479030E94820268E371E0809185
:100BD000A5019091A6010E940A0460E471E0809151
:100BE000A5019091A6010E940A0462E070E080E0F5
:100BF00090E00E9448026AE070E080E090E00E948D
:100C0000480281E00E940C04812C912C5401C82DD3
:100C10000E94820269E471E08091A5019091A60191
:100C20000E940A0460E471E08091A5019091A60100
:100C30000E940A0462E070E080E090E00E944802B6
:100C40006AE070E080E090E00E94480282E00E944A
:100C50000C04C12CD12C7601D0EFD80D0E94820259
:100C600061E571E08091A5019091A6010E940A04BE
:100C700060E471E08091A5019091A6010E940A04B0
:100C800062E070E080E090E00E9448026AE070E07C
:100C900080E090E00E94480283E00E940C04CC15A2
:100CA00009F486C00E94820261E671E08091A5018C
:100CB0009091A6010E940A0460E471E08091A50170
:100CC0009091A6010E940A0462E070E080E090E04A
:100CD0000E9448026AE070E080E090E00E944802D2
:100CE00084E00E940C04C03108F07DC08C2F0E946B
:100CF000EE028C2F0E940B03F601EE58FF4F8491F9
:100D0000F601E255FF4F0491F601E656FF4F1491AC
:100D1000112309F46DC081110E94CA01E12FF0E096
:100D2000EE0FFF1FE859FF4FA591B491EC910E23F0
:100D300009F45EC010E00E9479031123C9F10E94FA
:100D4000820269E571E08091A5019091A6010E945F
:100D50000A0460E471E08091A5019091A6010E94CF
:100D60000A0462E070E080E090E00E9448026AE0DD
:100D700070E080E090E00E94480285E00E940C0450
:100D80006AE08BEA91E00E9457012AE0B501A401D4
:100D90008BEA91E00E94C10369E08BEA91E00E9436
:100DA00057012AE0B701A6018BEA91E00E94C10336
:100DB0008FEFC81AD80AE80AF80A8FE1C816D104DA
:100DC000E104F10409F04ACF8FEF881A980AA80AC3
:100DD000B80A8FE188169104A104B10409F017CF75
:100DE0000E94C00111CF8D2F0E94EE028D2F82CF65
:100DF00011E0A1CFEE0FFF1F0590F491E02D0994B3
:100E000081E090E0F8940C942707A1E21A2EAA1B27
:100E1000BB1BFD010DC0AA1FBB1FEE1FFF1FA217AA
:100E2000B307E407F50720F0A21BB30BE40BF50BA7
:100E3000661F771F881F991F1A9469F76095709530
:100E4000809590959B01AC01BD01CF010895F89468
:020E5000FFCFD2
:100E5200000000005701D3002001FE0012019E0194
:100E6200564D4450435F005F564D4450430D0A00B7
:100E7200564D4450565F317C315F564D4450560DAD
:100E82000A00737461727400564D4450455F31001C
:100E92005F564D4450450D0A00564D4450455F3251
:100EA20000564D4450455F3300564D4450455F3522
:0A0EB20000564D4450455F34000027
:00000001FF
